:020000040800F2
:1000000000500020C9430008FD430008FD430008DC
:10001000FD430008FD430008FD4300080000000008
:10002000000000000000000000000000FD43000888
:10003000FD43000800000000FD430008FD430008E8
:10004000FD430008FD430008FD430008FD43000890
:10005000FD430008FD430008FD430008FD43000880
:10006000FD430008FD430008FD430008FD43000870
:10007000FD430008FD430008FD430008FD43000860
:10008000FD430008FD430008FD430008113300084C
:1000900015330008FD4300080D330008FD43000838
:1000A000FD430008FD430008FD430008FD43000830
:1000B000FD430008FD430008FD430008FD43000820
:1000C000FD430008FD430008FD430008FD43000810
:1000D000FD430008FD430008FD430008FD43000800
:1000E000FD430008FD430008FD4300080000000038
:1000F0000000000000000000000000000000000000
:1001000000000000000000005FF808F110B5054C89
:10011000237833B9044B13B10448AFF300800123B3
:10012000237010BD800100200000000068920008CC
:100130000C4B43B10C4810B50C49AFF300800C4890
:10014000036823B910BD0A48036833B97047094BE7
:10015000002BF7D0BDE810401847064B002BF5D018
:10016000184700BF000000006892000884010020CA
:100170007C01002000000000154B002B08BF134B32
:100180009D46A3F5803A00218B460F461348144A3A
:10019000121A06F01AFE0F4B002B00D098470E4B98
:1001A000002B00D098470020002104000D000D48CE
:1001B000002802D00C4803F014FF06F0B9FD20001F
:1001C000290003F0CDFE03F009FF00BF0000080086
:1001D0000050002000000000533F00088001002074
:1001E00008140020E33F00080000000070470000F2
:1001F000024A136801331360704700BF48050020AE
:10020000024A136801331360704700BF4C05002099
:10021000024A136801331360704700BF6009002071
:10022000024A136801331360704700BF640900205D
:10023000064A1378013BDBB2137033B904490B78DB
:1002400043F001030B700A23137070475C09002010
:100250000C0600200368184708B10B68036070475C
:100260007047000038B5B0F90030044601330D4640
:1002700004D13A220549064806F04EFB636815B1E1
:10028000E268136038BD2269FBE700BF668600089C
:10029000D786000808B500210448FFF7E3FF044AA9
:1002A000137843F04003137008BD00BFB80200206C
:1002B0000C060020F8B50B4E0B4C0A4806F03CF833
:1002C00070B1276865793046EDB26B1CDBB26371A3
:1002D00005F0CCFF7855E379627913406371ECE760
:1002E000F8BD00BFF80100205005002010B50446FD
:1002F0000C2106F08DFB204610BD000038B5124CD5
:1003000012482378254613F0400F09D006F08FF9E4
:100310000E4806F048F923786FF38613237038BD32
:1003200006F070F90A4C2060084806F05BF9236873
:10033000B3F5FA6F84BF41F2A86323602B786FF3A3
:10034000C7132B7038BD00BF0C060020F40200203C
:10035000000600200B4B1A880B4B1B689A420EDAE2
:100360000A4B1A880A4B1B689A4208DA094B18880C
:10037000094B1B689842ACBF002001207047002049
:10038000704700BFD0060020CC0600207408002073
:1003900070080020B4060020B006002038B50546DD
:1003A00055F8043B04469B689847284602F020FF16
:1003B000054623682046DB689847284638BD38B58F
:1003C00004460D4606F0CCFA2946204603F021FDEE
:1003D000BDE8384006F0EEBA38B50D4602F038FAFE
:1003E00078B1084C08482378E95CB1FA81F14909F1
:1003F000FFF738FF23780133DBB21E2B88BF0023C1
:10040000237038BD2C030020E401002003460020A7
:10041000D871587930B5451C5D7155251C6801327D
:10042000255458799C79D2B22040451C5D714E25E7
:100430001C68255458799C792040451C5D714525E0
:100440001C68255458799C792040451C5D715225C3
:100450001C6825545C7998791D680440601C5871AB
:100460002A5558799C792040451C5D713A251C68B5
:10047000255458799C7920401C68451C5D71215495
:1004800058799C7920405871D879424081F03600E3
:100490005040D87130BD03465A79006810B5541CDD
:1004A0005C7181545A7998790240D8795A714840E0
:1004B000D87110BD00220D4B70B51A701C780A5D02
:1004C0008AB142790568561C46710C5DAC5442797C
:1004D0008479224042711A78541C1C708A5CC47959
:1004E0006240C271EAE7C07970BD00BF1806002003
:1004F00010B58379C47919442140036881715B5C2C
:10050000114421408171184610BD2DE9F04F0022A1
:1005100001244FF0060805254FF0040C03264FF088
:10052000020E90F805900379994558D0877AC179E1
:10053000062F52D8DFE807F0040F1C22292E3C00BA
:100540000768FB5C552B01D18472C57203790133B6
:1005500019400171E7E70768FF5C4E2F02D180F870
:100560000AE0F3E7552FF1D0013B82720371EDE70A
:100570000768FF5C452FF7D18672E7E70768FF5CE5
:10058000522FF1D180F80AC0E0E70768FB5C857262
:100590004372DBE70768FF5C3A2FE5D101330B407C
:1005A0008371437A80F80A8083F036030372CDE7C3
:1005B000477AD0F800B0013FFFB2477290F808A028
:1005C00027B11BF8033083EA0A03EFE787721BF8B1
:1005D00003305345BAD10473B8E78272B6E7BDE879
:1005E000F08F0000F8B5026883790C46D15CAB4E01
:1005F000A5290546376800F0088346D8A12900F0F0
:10060000EE8113D8122900F0C180A02900F0C68025
:10061000102940F09A8002222046FFF7F7FEA048FA
:1006200005F010FDC14301F00F01ABE0A32900F07C
:10063000888240F232829B4B9B4D1B680922A42189
:1006400020462B60FFF7E2FE29782046FFF723FFC4
:1006500069782046FFF71FFFA9782046FFF71BFFA8
:10066000E9782046FFF717FF904B1968204629606C
:10067000C9B2FFF710FF69782046FFF70CFFA97891
:100680002046FFF708FFE9787CE0A92900F06082A6
:1006900054D8A72900F0748140F2A2800622A82134
:1006A0002046FFF7B3FE0D212046FFF7F4FE804AF7
:1006B00001211378284643F0400313700022FFF70E
:1006C00017FF00F15A03DBB2B42B00F29E82B6F999
:1006D0000A20B6F90810B6F90E5040B28B1A401B2A
:1006E0004343B6F90C00401B93FBF0F388B213446C
:1006F000834288BF0B4691B28B42336038BF326071
:1007000031686C48FFF75BFE4FF47A713368B6F9D5
:1007100008209F4234BFDF1BFF1A77607368B6F969
:100720000A004B43121AB3FBF2F38B4288BF0B460D
:10073000312B73609CBF3223736006E2B22900F054
:10074000538208D8B12900F0BD8002222046FFF76D
:100750005DFEFF2116E0F0290FD0F129F5D10C2222
:100760002046FFF753FE54492046FFF7A3FEE179E8
:100770002046BDE8F840FFF78EBE02222046FFF774
:1007800045FE0D212046FFF786FEF0E702222046B7
:10079000FFF73CFE494805F073FB43E7484E424DE6
:1007A0003388072220462B80FFF730FE2978204629
:1007B000FFF771FE69782046FFF76DFE71892046CC
:1007C0002980C9B2FFF767FE69782046FFF763FE0C
:1007D000B18A20462980C9B2FFF75DFE6978D1E76A
:1007E0000222A6212046FFF711FE0D212046FFF729
:1007F00052FEE1792046FFF74EFE002201212846F5
:10080000FFF776FE284C0022207001212846FFF7D2
:100810006FFE0022607001212846FFF769FE00226A
:10082000A07001212846FFF763FEE0702368244E84
:100830000022F38001212846FFF75AFE0022207093
:1008400001212846FFF754FE00226070012128464E
:10085000FFF74EFE0022A07001212846FFF748FE58
:10086000E07023680022338201212846FFF740FE12
:100870000022207001212846FFF73AFE0022607016
:1008800001212846FFF734FE0022A07001212846EE
:10089000FFF72EFEE07023687383F8BDB8060020D2
:1008A00060060020580900201C0800205409002080
:1008B0000D06002078080020BC85000820080020D4
:1008C000400600200222A6212046FFF79FFD0D21B1
:1008D0002046FFF7E0FDE1792046FFF7DCFD00222E
:1008E00001212846FFF704FEC84C00222070012198
:1008F0002846FFF7FDFD0022607001212846FFF722
:10090000F7FD0022A07001212846FFF7F1FDE070FD
:100910002368BF4E0022338101212846FFF7E8FDFE
:100920000022207001212846FFF7E2FD00226070BE
:1009300001212846FFF7DCFD0022A0700121284696
:10094000FFF7D6FDE070236800227382012128465C
:10095000FFF7CEFD0022207001212846FFF7C8FDD9
:100960000022607001212846FFF7C2FD0022A0701E
:1009700001212846FFF7BCFDE0702368B383F8BD72
:1009800002222046FFF742FD0D212046FFF783FD9E
:10099000E1792046FFF77FFD002201212846FFF77D
:1009A000A7FD9A4C0022207001212846FFF7A0FDE8
:1009B0000022607001212846FFF79AFD0022A070F6
:1009C00001212846FFF794FD924BE0701968FA2345
:1009D0002268002AB8BF524253430B60F8BD02227E
:1009E0002046FFF713FD0D212046FFF754FDE17966
:1009F0002046FFF750FD002201212846FFF778FD31
:100A0000824C0022207001212846FFF771FD002250
:100A1000607001212846FFF76BFD01210022A070C4
:100A20002846FFF765FDE07026687B48002EACBFC6
:100A30000221012105F0DAFAFA21002EB8BF764230
:100A400071437648FFF7BBFC002201212846FFF7DF
:100A50004FFD0022207001212846FFF749FD0022AA
:100A6000607001212846FFF743FD0121A07000229C
:100A70002846FFF73DFDE07024686948002CACBFB4
:100A80000221012105F0B2FAFA21002CB8BF64421C
:100A900061436448FFF793FCF8BD0222A22120467F
:100AA000FFF7B4FC0D212046FFF7F5FCE179204665
:100AB000FFF7F1FC5C4A01211378284643F040031C
:100AC00013700022FFF714FD00F15A03DBB2B42BC0
:100AD00000F29B80B6F90A20B6F90810B6F90E406C
:100AE00040B28B1A001B4343B6F90C00001B93FB6A
:100AF000F0F388B21344834288BF0B4691B28B4215
:100B0000336038BF326031684848FFF758FC4FF413
:100B10007A713368B6F908209F4234BFDF1BFF1A91
:100B200077607368B6F90A004B43121AB3FBF2F30D
:100B30008B4288BF0B46312B736066D832237360BB
:100B4000F8BD05222046FFF761FC304D384B8CE59F
:100B500013222046FFF75AFC354B2C4D19682046CE
:100B60002960C9B2FFF797FC69782046FFF793FC2C
:100B7000274EA9782046FFF78EFCE9782046FFF73C
:100B80008AFC318820462980C9B2FFF784FC697845
:100B90002046FFF780FC718920462980C9B2FFF703
:100BA0007AFC69782046FFF776FCB18A20462980D6
:100BB000C9B2FFF770FC69782046FFF76CFC1D4B4B
:100BC000204619682960C9B2FFF765FC697820469C
:100BD000FFF761FCA9782046FFF75DFCE978204625
:100BE000FFF759FC144B40E502222046FFF70EFCAC
:100BF0000D212046FFF74FFCE1792046FFF74BFC23
:100C00000E4A137801331370F8BDF8BD1C0800209C
:100C100040060020F400002068050020DC080020C9
:100C2000B4050020F40800200D06002078080020FC
:100C30000006002060090020640900203C05002017
:100C400070B5037B05460C4616461BB100230373A3
:100C5000FFF7C8FC194801F0FBFD38B1AB7A2BB1A6
:100C6000EB7A013BDBB2EB7203B9AB722A796B7999
:100C70009A4202D02846FFF748FC237962799A42CB
:100C80000CD066B121685A1C2271194401220C480B
:100C900001F074FE2379A2791340237170BD0948D5
:100CA00005F05BFB0028F9D023792268591C2171DB
:100CB000D15C044805F0E9FAECE700BF100600201B
:100CC00030070020F801002010B50E4C23785B0699
:100CD00016D501F0BDFD98B1237802226FF386137B
:100CE0002370094CA2212046FFF790FB0A212046E1
:100CF000FFF7D1FBE1792046BDE81040FFF7CBBB01
:100D000010BD00BF0D0600206005002010B50C4886
:100D100005F085FC0B4C2368C01AB0F57A7F0EDB1A
:100D2000074805F07CFC084B084A196820601160F0
:100D300000221A60064B074918681A60086010BD47
:100D40002007002038030020480500205809002013
:100D50004C0500205409002010B5174805F05FFC31
:100D6000164C2368C01A1D2819DD134805F057FCDE
:100D70002060134C2378012B12D004D3022B15D002
:100D8000FF23237004E00F48FFF708FB0E4B188089
:100D900023780133DBB2022BC8BF0023237010BDC0
:100DA0000A48FFF7FBFA084B5881F1E70848FFF7BC
:100DB000F5FA054B9882EBE720070020300300206E
:100DC0003403002028060020400600201C060020D6
:100DD000340600202A4A10B514462A4B03F11001AC
:100DE00053F8040B8B4242F8040BF9D11B781370B3
:100DF000254B264A03F1100153F8040B8B4242F8AD
:100E0000040BF9D119889B781180937020496422D2
:100E1000204805F0CFFF204B204A03F10C0153F886
:100E2000040B8B4242F8040BF9D11B7813701C4B56
:100E30001C4A03F1380153F8040B8B4242F8040BAF
:100E4000F9D11B881380184B184A03F10C0153F891
:100E5000040B8B4242F8040BF9D11B881449138010
:100E6000144ADD3913681448C4F8DD305368C1F8FA
:100E7000E1309368C1F8E530BDE8104001F06CBD89
:100E8000310700205C8500084885000842070020E3
:100E9000C9850008550700203A850008B9070020D9
:100EA0008A850008C60700206E850008000800201B
:100EB0000E0800207D8500083007002010B504468C
:100EC0000C4801F073FD98B1204601F0C1FC78B1E7
:100ED000094C0222F0212046FFF798FA0D21204606
:100EE000FFF7D9FAE1792046BDE81040FFF7D3BA01
:100EF00010BD00BF30070020780B002070B51C4CDF
:100F00000546B4F90A30B4F90820B4F90E60881B1C
:100F1000D11A4143B4F90C00801B91FBF0F190B25F
:100F20001944814288BF11469AB29142216038BF6C
:100F3000236021680F48FFF742FA4FF47A71236863
:100F4000B4F90820AB428CBF5D1BED1A6560636885
:100F5000B4F90A004B43121AB3FBF2F38B4288BF79
:100F60000B46312B63609CBF3223636070BD00BFB2
:100F7000B80600207808002010B50C46062842D894
:100F8000DFE800F00414222C2E3B410002211F4810
:100F900005F02CF802211E4805F028F821461D48CE
:100FA000FFF70DFA04F57A711B4823E00121174879
:100FB00005F01CF80121164805F018F821461548DF
:100FC000FFF7FDF92146EFE70221104805F00EF882
:100FD00021461048FFF7F3F90021E5E70221E6E793
:100FE00002210B4805F002F821460B48FFF7E7F90C
:100FF00000210848FFF7E3F910BD0121034804F080
:10100000F5FF0221D7E70021E3E700BF68050020D4
:10101000B4050020DC080020F408002010B50346C9
:10102000084644490A782AB901240C7042490A60EA
:1010300042490A601E2B44D007DC012B63D00021FB
:101040000620FFF799FF002010BD5A2B10D0B3F5F2
:10105000B47FF4D14FF4FA51FFF78EFF364B1B6883
:10106000182BF0D9354B1B68182BECD9012010BD7B
:10107000032801D005280BD142F21071FFF77CFF45
:101080002D4B1B68032BDED92C4B1B68032BECE785
:1010900004280CD142F6E061FFF76EFF274B1B6876
:1010A0000C2BD0D900210620FFF766FFDEE70228CF
:1010B000C9D141F64661FFF75FFF1F4B1B68092B43
:1010C000EFE7032801D005280BD141F66411FFF7A3
:1010D00053FF194B1B68012BB5D9184B1B68012B0B
:1010E000C3E7042807D142F21071FFF745FF134B05
:1010F0001B68072BD5E70228A5D142F21071FFF734
:101100003BFF0D4BF4E70328DFD00528DDD0042892
:1011100007D142F21071FFF72FFF084B1B68012B1C
:10112000BFE702288FD142F21071FFF725FF024B73
:10113000F4E700BF190600206009002064090020C0
:10114000F8B506462A480F4615461C4601F080FBB6
:1011500000284BD0274B1B88BB420DDD264B1B883C
:10116000B34209DA254B1B88AB4205DA2146002041
:10117000BDE8F840FFF700BF214B1B889D42214B83
:101180000EDA1A8897420BDD1B4A1288964207DD59
:1011900021460220FFF7F0FE03221B4B1A70F8BD18
:1011A0001A4A128896420CDA1A88974209DD134AC5
:1011B0001288954205DD21460420FFF7DDFE01225D
:1011C000EBE71B889F4211DD0B4B1B889E420DDD18
:1011D0000A4B1B889D4209DD0B4BA4F5C8611878AA
:1011E000012801D00328C3D00520C1E7F8BD00BF06
:1011F00040050020C8060020B40600207408002026
:101200006C080020D0060020F0000020AC06002072
:10121000084B1B888B420ADD074B1B88834206DD87
:10122000064B18889042D4BF002001207047002050
:10123000704700BFC8060020AC0600206C080020E4
:10124000F8B505463D480E46144601F001FB08B3CB
:101250003B4A1E2ED4BFA91BA5F11E011268C1EB8B
:101260000111A4B28BB204F24655E2B11D442DB275
:10127000E31A022133481CB204F0B8FE02213248BE
:1012800004F0B4FE29463148FFF799F8214630486A
:10129000FFF795F82F4C2378042B48D8DFE803F0AC
:1012A00007070D2D3F00ED1A2DB22344E1E7E37A45
:1012B0000133E37202232370F8BD274B274E1D68CC
:1012C000274B284F1B88AB4209DC274B1A88336811
:1012D0009A4204DC254B1A883B689A4205DD3A683D
:1012E00031682846FFF794FF18B33A6831682846FA
:1012F000FFF78EFF00B30423DDE7174B1D68174B84
:101300001968184B1E68FFF725F808B101232370F0
:1013100032462846FFF77CFF0028ECD1F8BD627A00
:1013200052B9A37AE17A23445970E272F8BD0023DE
:10133000C1E703232370D8E7F8BD00BF04060020EF
:10134000B806002068050020B4050020DC08002055
:10135000F408002014070020B0060020CC0600206E
:10136000AC06002070080020C80600206C08002091
:10137000C36810B504460BB19B689847204610BD62
:10138000C36810B504460BB19B689847204610BD52
:1013900038B505460446064B45F8183B05F0F0F80D
:1013A0002846FFF7EDFF204605F032FA204638BD0B
:1013B0008090000810B50446FFF7EAFF2046282178
:1013C00005F026FB204610BD10B50446024B036015
:1013D000FFF7DEFF204610BD6890000870B5064696
:1013E00004460B4B00F1B80546F8983BB54204D0D3
:1013F000103D2846FFF7C4FFF8E704F13800FFF777
:10140000B7FF04F12800FFF7B3FF204670BD00BF0F
:101410005090000810B50446FFF7E0FF2046BC21BD
:1014200005F0F6FA204610BD10B50446024B0360E5
:10143000FFF7D4FF204610BD3890000838B5CB68C0
:1014400004460D460BB15B689847EB682046E360A5
:1014500038BD000030B51C4C1C4D237885B06FF3AF
:10146000000323702B78013BDBB22B7053BB94F944
:101470000020002A0ADA2278154863F3C712227086
:1014800005F0B0F84FF0FF32124B1A600223012131
:1014900011482B70FEF7E6FE104B11480093114BDC
:1014A0000393FFF76DFF69460D48FFF7C7FF0A2159
:1014B0000D4805F051F86846FFF762FF237843F0C6
:1014C0008003237005B030BD0C0600205D090020AC
:1014D000F402002000060020B80200209502000857
:1014E0001C030020108500080403002000000000F9
:1014F0000A222DE9F04F0024B74BB84E1A70B84DB0
:10150000B84BC7B0B8483E9334704195FFF738FFE9
:101510003EA9B548FFF792FF42F21071B34805F0BB
:101520001BF8B34F3EA8FFF72BFF3EA9B1483E97EB
:10153000419504F01BFE3EA8FFF722FF3EA9AD48EF
:101540003E97419504F03CFE3EA8FFF719FF0222AA
:101550003378A94943F040033370A84B1A70A84B65
:10156000A84A1A60FF221C715C719C72DA71A64B4A
:1015700019601C715C719A71A449A54B19601C71AA
:101580005C71DA719C72A349A34B9A7119601C714A
:101590005C71A24B26AA03F1180614461868596814
:1015A000083303C4B3422246F7D118689B882060F1
:1015B000A38001241E2200212EA805F006FC1E2275
:1015C000002136A88DF8B8408DF8C2408DF8CC4087
:1015D00005F0FBFB1E2200213EA88DF8D8408DF8B7
:1015E000DA408DF8E2408DF8E4408DF8EC408DF85B
:1015F000EE4005F0EAFB4FF416638DF8F8408DF8E5
:1016000002418DF80C41864C40F2DC56238140F2B9
:10161000262363815A23A3814FF6A6734FF4E13149
:101620008048E381666004F073FE7F4804F0BBFFEE
:1016300005F096F919217D4802F0E6FB05F0BAF9AC
:1016400005F08EF919217A4802F0DEFB05F0B2F9B7
:1016500005F086F91421774802F0D6FB05F0AAF9C7
:10166000754B002222A96F482293259504F0FAFEBB
:1016700022A8FFF785FE714B22A971482293259578
:1016800004F074FD22A8FFF77BFE6E4B22A96E4882
:101690002293259504F06AFD22A8FFF771FE6B4B9B
:1016A00022A967482293259504F060FD22A8FFF740
:1016B00067FE674B22A964482293259504F056FDE6
:1016C00022A8FFF75DFE40F233415A482160FEF741
:1016D00076FE00215548FEF772FE00215448FEF7C1
:1016E0006EFE64210AA801F0AFF814210CA801F0E5
:1016F000ABF80A21574801F0A7F84FF496710EA8ED
:1017000001F0A2F8A18810A801F09EF843F69821F4
:1017100012A801F099F8314614A801F095F80A21B1
:101720004D4801F091F80A2116A801F08DF8962194
:1017300018A801F089F83221484801F085F84FF4E3
:101740007A711AA801F080F84FF4FA611CA801F030
:101750007BF841F288311EA801F076F842F2107150
:1017600020A801F071F8C82122A801F06DF8042129
:101770003B4801F00BFC3B4801F0A4FB44F274042D
:10178000FFF728FB42F2107143F6982244F62060DE
:101790004FF0000A344B354D1E88D9802E605E898B
:1017A000334D19825C8398831A815A822E609D8AF8
:1017B000304BD3461D60304B554619802F4B198056
:1017C0002F4B00211C802F4B54461A802E4B1A8021
:1017D0002E4B18805CE000BF5C0900200C06002046
:1017E0001085000831020008E4020020CC0200202D
:1017F000FD0200089C0100203C0400205D0900203F
:10180000500500203C0300206005002068090020EE
:10181000680B0020680A0020780B00201C85000857
:10182000B8060020F801002020070020DC08002076
:10183000F408002078080020B5020008F101000833
:1018400094080020010200080C0900201102000881
:101850002102000810060020400500200406002098
:10186000D40600203007002040060020B0060020EB
:10187000CC06002070080020AC060020C80600201E
:101880006C080020B4060020D00600207408002058
:101890009A4B1868FFF732FB4FF49673CDF810A0FF
:1018A000CDF814A0CDF818A00293CDF80CA0CDF877
:1018B00004A0CDF820A0924801F036FA0022914908
:1018C0009148FFF7BDF9012290499148FFF7B8F917
:1018D000904804F0D5FA904EC2B290490CA801F09D
:1018E0007DFBFFF713FAFFF737FA311D10A8FFF75A
:1018F000EBF912A8FFF7E2FA894B1B681A68894BCB
:101900001A607E4B32681A60874B1B78DB0701D563
:10191000FFF7A0FD854B864A1E683A23B6FBF3F617
:10192000844BDFF834921988188A11605A898249E9
:10193000824F0A609A8AD988C9F80020804A1180AB
:1019400080490880588B8049088018897F49088021
:10195000588A7F490880998B7E4B19803B78042BED
:1019600000F27785DFE813F005000E001B001E0073
:10197000CB0126A90AA8FEF72FFD00210620FFF7BC
:10198000FBFA53E004232EA90AA83B70FEF724FDBE
:10199000644B714A68491B681268096819E204239C
:1019A0003B7043E00AA836A9FEF716FD042316A8EB
:1019B0003B7000F04DFF002838D0BBF1030F00F260
:1019C0005385DFE81BF00400D7002E0180010021C1
:1019D0006248FEF7F4FC00216148FEF7F0FC039B2F
:1019E000464F012B61D004D3022B6BD0CDF80CB045
:1019F0000EE0019B3868013319460193FFF77EFA28
:101A0000019BDDF80CB0592BD4BF002301230393B5
:101A1000029BB3420ADD642E08DC002E18BF334659
:101A2000019A0293079B18BF134607933B4B9B7881
:101A3000012B27D1414E314F3378002101333868D3
:101A40003370FFF75BFA3378012B04BF0223337046
:101A50003378022B0DD16FF054013868FFF74EFA3E
:101A60003378013333704FF49673029300239B460F
:101A700007933378042B40F0058500231C46394A30
:101A800005931370254B9A6840F6B8339A427FF756
:101A900012AF2A4B1A78002A3FF40DAF00211970BB
:101AA000164B1868FFF72AFA05E7019B3868013BD7
:101AB00019460193FFF722FA019B5A33039BD8BFC3
:101AC0000223A4E70023284A1360284A1360029BDC
:101AD000642B0FDC264804F0A2FD4FF001080890AB
:101AE00000213868FFF70AFA0023CDF80CB0019303
:101AF000C3468DE74FF00308F2E700BF90080020CF
:101B0000300700206005002050050020780B0020E1
:101B1000680B002020080020B8060020D406002012
:101B2000F4000020B40200200C0600200006002073
:101B3000B006002040060020CC0600203C05002016
:101B4000AC060020C80600206C080020B406002067
:101B5000D00600207408002070080020DC08002057
:101B6000F408002019060020600900206409002004
:101B700020070020AC4804F052FD089BC01AB0F5C5
:101B8000FA7F1BDB079B002BA84B1B683DDB012B5F
:101B900028D9A74B1B68012B24D90021A548FEF7A3
:101BA0000EFC0021A448FEF70AFC00239F4A9E4831
:101BB00013609F4A136004F032FD0890029B1E3BA5
:101BC0009E42FFF633AF029B1E339E42029BD8BF5C
:101BD0004FF496730293079BDCBF00234FF0020B78
:101BE000079323E70121954804F000FA0221944865
:101BF00004F0FCF941F690218E48FEF7E0FB41F637
:101C000090218D48FEF7DBFBD8E7012B03D9884BE9
:101C10001B68012BC1D80221884804F0E7F9012193
:101C2000E5E7642E0FD9069B0133DBB20693069BD2
:101C3000092B7FF7FBAE00237C4A4FF0030B1360A8
:101C40007B4A1360F2E6A6F11003542B23D83046EA
:101C500005F0C2FD00227B4B05F04EFF70A3D3E9D7
:101C6000002305F01FFE0022774B05F069FC06F00B
:101C70002BF806460221714804F0B8F90221704899
:101C800004F0B4F931466B48FEF799FB31466A48D7
:101C9000FEF795FBCBE7082E0FD80121674804F02B
:101CA000A5F90121664804F0A1F941F690216148A7
:101CB000FEF785FB41F69021E9E700215D48FEF73C
:101CC0007EFB0021E3E7594B1B68112B04D9584BCD
:101CD0001B68112B00F2C0830221584804F086F9DA
:101CE0000121574804F082F941F690215148FEF74E
:101CF00066FB41F690215048FEF761FB96E63EA94F
:101D00000AA80992514FFEF767FBDFF86081099A34
:101D10001D2C00F2AD83DFE814F01E002700440004
:101D2000AB036100AB00C000DD00ED00FB000B0168
:101D30006D01350160019301C101CE01F2010E0276
:101D400077024F026B029802BF02E102F802210300
:101D500048035F03730303214FF4B470FFF75EF988
:101D6000041C18BF012461E6394B00201968FFF7F5
:101D700003F9384B1A88D8F800309A420CDC364BFD
:101D80001A88324B1B689A4206DC344B1A88344B53
:101D90001B689A427FF74AAE0022324B02241A7027
:101DA00044E602215A20FFF739F900283FF43EAEFD
:101DB0001CA800F04DFD30B12B4B6FF0540118689A
:101DC000FFF79CF8042441F64C53254AD8F800103C
:101DD00012681E480068FFF7B3F927E6234941F669
:101DE0006A03D9F8002009683868083EFFF7A8F9A7
:101DF000092E09D800210620FFF7BEF81A4B0A2148
:101E00001868FFF77BF806241EA800F021FD0028C3
:101E10003FF40CAE0022134B05241A7006E600BFF7
:101E2000000000000082D44020070020600900204C
:101E300064090020DC080020F40800206805002068
:101E4000B4050020000069400040AF40B00600200B
:101E5000B4020020C8060020AC0600206C08002058
:101E6000700800201906002090080020CC060020F1
:101E700005210120FFF7D2F800283FF4D7AD41F249
:101E800088310020FFF778F8FEF764FA0028059BF8
:101E900004BF002304240593C8E506200021FFF7B2
:101EA0006BF81AA800F0D4FC00283FF4BFAD3C2E1C
:101EB000B44B08D918680021FFF720F80022B24B74
:101EC00008241A70B2E56FF054011868FFF716F88D
:101ED0000724ABE5AD4941F66A03D9F8002009684B
:101EE0003868FFF72DF91CA800F0B2FC002818BFD5
:101EF00004249BE505215A20FFF790F800283FF4C1
:101F000095AD0023A24A09241360A24A13608DE50F
:101F10009F4B1B68032B08D99E4B1B68032B04D9CE
:101F2000FEF718FA002840F0B38241F664115CE134
:101F3000994BD9F80020D8F8001038681B68FFF7D3
:101F4000FFF8D9F80020D8F800103868FFF760F9DA
:101F500000283FF46BAD049B53B919460620FFF7E8
:101F60000BF8884B6FF054011868FEF7C7FF049D0B
:101F70001CA800F06DFC00280EBF012300230C24D8
:101F8000049353E5B1B241F288320820FFF758F9C3
:101F9000824BD8F800101B888B42814B0BDA814AA8
:101FA00010881A68904206DA7F4A10887F4A1268C1
:101FB0009042B8BF01251A687C4B1868FFF728F9D2
:101FC00000283FF433AD012D7FF430AD0021062011
:101FD000FEF7D2FF00250D2428E56C4BD9F8002030
:101FE00019683868FFF714F9002800F0448241F2BC
:101FF0007071FAE0684BD9F80020D8F80010386802
:102000001B68FFF79DF8D9F80020D8F80010386851
:10201000FFF7FEF800283FF409AD022E7FF606AD6B
:10202000132E3FF603AD00210620FEF7A5FF1AA8E8
:1020300000F00EFC002805461CBF0E240025F5E428
:1020400041F28832B1B20820FFF7FAF8544B3E68EB
:10205000D8F800101F68FEF77DF93A460028304690
:1020600018BF0125FFF7D4F800283FF4DFAC012D9D
:102070007FF4DCAC1AA800F0EBFB002840F0FE81F6
:10208000059B23B919463F4B1868FEF737FF00211F
:102090000620FEF771FF01230593C7E43B4BD9F8F7
:1020A000002019683868FFF7B3F800289FD1142E74
:1020B0009DD91024BAE4384BD9F800201B68D8F811
:1020C00000103868FFF73CF80122394BD8F80010AF
:1020D0005A723868D9F80020FFF79AF800283FF4C0
:1020E000A5AC192E3FF6A2AC1AA800F0B1FB00284F
:1020F0003FF443AC0022244B11241A703DE4234BDF
:10210000D9F8002019683868FFF782F800287FF4B2
:102110006EAF192E3FF66BAF03215A20FEF77EFFFC
:10212000184B6FF054011868FEF7E8FE0122214BAE
:1021300012241A707AE41CA800F08AFB033E0028DF
:1021400018BF4FF0010A0B2E3FF622ACBAF1010F77
:102150007FF41EAC06200021FEF70EFF1CA800F045
:1021600077FB00283FF462AC064B5A211868FEF753
:10217000C5FE0023064A9A461360064A14241360DB
:1021800054E400BF9008002019060020CC0600206F
:102190006009002064090020B4020020D00600205D
:1021A0007008002074080020B4060020B00600204B
:1021B00014070020F0000020B84B1B680C2B12D92C
:1021C000B74B1B680C2B0ED906200021FEF7D4FE5E
:1021D0001CA800F03DFB00283FF428AC0022B14BC6
:1021E00015241A7022E441F288310020FFF7C7BBA2
:1021F00003211E20FEF712FF00283FF417AC002237
:10220000A84B13241A7011E412883B689A420BDC25
:10221000A54B1A88A54B1B689A4205DCA44B1A886B
:10222000A44B1B689A420BDD00210620FEF7A4FE9A
:102230001AA800F00DFB002818BF1624FFF7F6BB04
:1022400041F27C510520FFF79ABB9B4BD9F8002047
:10225000D8F8001038681B68FEF772FFD9F8002024
:10226000D8F800103868FEF7D3FF00283FF4DEAB43
:10227000022E7FF6DBAB132E3FF6D8AB00210620F3
:10228000FEF77AFE1AA800F0E3FA002805461CBF04
:1022900017240025FFF7CABB41F28832B1B20820EB
:1022A000FEF7CEFF834B3E68D8F800101F68FEF79C
:1022B00051F83A460028304618BF0125FEF7A8FF1E
:1022C00000283FF4B3AB012D7FF4B0AB0021062012
:1022D000FEF752FE00251824FFF7A8BB41F27071EB
:1022E0000020FEF749FE734BD8F800101A683868D2
:1022F000FEF78EFF014600287FF498AB6F4B192440
:102300001868FEF7FBFDFFF791BB6B4BD9F8002077
:10231000D8F8001038681B68FEF712FFD9F80020C3
:10232000D8F800103868FEF773FF00283FF47EAB42
:10233000049B4BB919460620FEF71EFE5F4B5A213F
:102340001868FEF7DBFD049D1CA800F081FA01234C
:102350000028049318BF1A24FFF768BB41F28832A3
:10236000B1B20820FEF76CFF524B3E68D8F800105F
:102370001F68FDF7EFFF3A460028304618BF0125D9
:10238000FEF746FF00283FF451AB012D7FF44EAB22
:1023900000210620FEF7F0FD1AA800F059FA0028E7
:1023A0001CBF00251B24FFF741BB41F270710020C8
:1023B000FEF7E2FD3F4BD8F800101A683868FEF7C8
:1023C00027FF014600287FF431AB3C4B1C241868E2
:1023D000FEF794FDFFF72ABB374BD9F800201B68A6
:1023E000D8F800103868FEF7ABFEFDF7B3FF002801
:1023F0003FF41CAB00222B4B1D241A70FFF716BBB9
:102400004FF4FA510220FEF7B7FD00222C4B5A720E
:102410002C4B1A882C4B1B689A420CDC224B1A88D6
:10242000224B1B689A4206DC214B1A88214B1B6801
:102430009A427FF7FBAA00251A4B6FF054011D70DA
:102440001E4B04241868FEF759FD04950595FFF707
:10245000EDBA0023FFF7A4BA002306934FF4967356
:1024600002930023039301934FF0000BFFF7DEBAB2
:102470000024FFF7DBBA0B24FFF7D8BA00250F249E
:10248000FFF7D4BA052B04BF00233370FFF7FABA65
:1024900001220E4B0A241A70FFF7C8BA6409002003
:1024A0006009002019060020C8060020CC06002084
:1024B0006C08002070080020B40200209008002062
:1024C00014070020AC060020B0060020F000002019
:1024D000034653F8042B10B5044602B90360226882
:1024E0009A4204D059220349034804F015FA20689F
:1024F00010BD00BFF78500085286000808B50248E5
:10250000FFF7E6FF08BD00BF2813002008B502480A
:10251000FFF7DEFF08BD00BF28130020F8B5044612
:102520000F460546074B084E44F8043B3046FFF77C
:10253000CFFF3946204600F0FFFD3046FFF7C8FFC9
:102540002846F8BD008500082813002010B5044671
:10255000FEF76AFF2046BC2104F05AFA204610BD5F
:1025600010B50446FEF730FF2046282104F050FA4B
:10257000204610BD2DE9F0474FF014088F4C8EB067
:1025800042460021204604F020FC4FF01F0920465F
:102590004FF0FF348A4F8B4D8B4E2D2104F0A9F85C
:1025A0000C940B940A940994089407940694059447
:1025B00004940394029401941E23CDF800901722F2
:1025C0001621384603F0A8FC2A463146384601F069
:1025D00003FD07237D4F0C940B940A9409940894EF
:1025E0000794069405940494039402940194009330
:1025F000052206230421384603F0D8FB3846744FE1
:102600002A46744901F0E8FC4FF416530A220921C6
:10261000384603F021FE38466F4F2A466F4901F0D5
:10262000DBFC42460021DFF80482384604F0CDFB93
:1026300038461D216A4F04F05CF81C21404603F027
:102640005FFDDFF8ECA12A463946404601F0C4FCA4
:1026500004F086F90821634801F06AFBDFF8D481B1
:1026600004F0A8F902215046FFF758FF5046DFF862
:10267000C8A12A46414601F0AFFC01215046FFF7B0
:102680004DFF5046DFF8B4A12A46414601F0A4FCB4
:1026900000215046FFF742FF4146DFF8A4812A4659
:1026A000504601F099FC1921404603F029FD4046AF
:1026B000DFF890812A46394601F08EFC1821404609
:1026C00003F01EFD3946484F2A46404601F084FC7F
:1026D00023460C940B940A94099408940794069446
:1026E0000594049403940294019400944A461E2194
:1026F000384603F011FC2A463146384601F06CFC9E
:1027000023460C940B940A94099408940794069415
:102710000594049403940294019400940024334F8C
:1027200017221621384603F0F7FB2A463146384671
:1027300001F052FC04F014F911212D4801F0F8FACF
:102740002C4E04F037F904F00BF910212A4801F05F
:10275000EFFA04F02FF9294803F077FF304604F030
:1027600037F8274B746233603046264E2A46264996
:1027700001F032FC304604F02BF8244B2A467462F8
:1027800023493046336001F027FC224803F05DFF07
:10279000214B224A1C705C729C72DC72204C4FF4FC
:1027A00080732049204600F0B1F82A4620461E4991
:1027B0000EB0BDE8F04701F00FBC00BFE4010020FF
:1027C00060060020EC000020E15E000820080020E8
:1027D000F8010020755D0008B802002029140008E7
:1027E000A56000087808002068050020B4050020D6
:1027F000DC08002004030020F4080020F40200207C
:1028000068900008CC020020C913000880900008DE
:102810009113000820070020140700206D0B0020F2
:102820003007002068090020552900089C0100207D
:1028300028060020ED0100081C06002034060020B8
:10284000940800200C0900200023818083717047C8
:1028500038B5847905463CB901238371084803F0F3
:10286000DEFE2860204638BD054803F0D8FE00246F
:102870002B68C01AAB889842A4BFAC710124F1E761
:10288000200700202DE9F047194E1A4F1A4D18481D
:1028900003F052FD48B33B782BB9184B93F80080F6
:1028A000B8F1000F08D06C783046631C6B7003F0F1
:1028B000DDFC2C446071EAE7114C3046236893F844
:1028C0000090104BD3F800A003F0D0FC0AF80900E8
:1028D000226813780133137023680B4A1978126841
:1028E0009142D4D983F80080D1E7BDE8F08700BFDA
:1028F000D00D0020860D0020800B0020FC00002061
:10290000B00D0020980D0020900D002030B500245F
:10291000094D0470296009490A60094A1360094B8E
:10292000DC705C701C719C70074B1C70074B1C703A
:10293000074B1C7030BD00BF980D0020B00D00206B
:10294000900D0020800B0020880D0020870D0020B6
:10295000850D0020704700000122054B1A700A22E5
:10296000044B1960044B1A7000230370704700BFBA
:10297000860D00208C0D0020800B00200023F0B578
:102980001D46094CE778F8185E1CDBB29342C0B2D2
:1029900006DACB5C204480F8053101253346F2E7A6
:1029A00005B1E070F0BD00BF800B002000787047DB
:1029B00008B5084803F0D1FC58B1074B05481A790F
:1029C000511C1971134493F80511BDE8084003F038
:1029D0005CBC08BDD00D0020800B0020F0B50026A7
:1029E00030463546134B5F789C78A7421DD003EBE9
:1029F000040E9EF805C011F805E0E64508D1013542
:102A0000EDB211F805E0BEF1000F08BF0120F2E7BA
:102A1000012806D1012A04D106B19C7000F0010002
:102A2000F0BD0134E4B20126DFE7002EF6D09F703E
:102A3000F4E700BF800B0020F8B5B24C06462378BF
:102A40000B2B7BD8DFE813F00C0037005D00A500EE
:102A50007A00CB00F90022017A007A007A004C015A
:102A6000A94D2B782A460A2B14D1EB784C1E103135
:102A700014F8015F581C0A2D1344C0B283F80551A5
:102A800003D1D0700823137054E08C420346EFD179
:102A9000D370F7E700229D49FFF7A0FF9C4B002869
:102AA00000F0F08000221A700A232B70012399494C
:102AB0000A70237042E0944D2B782A460A2B10D1DD
:102AC000EB7801F11104243114F8015B581C0A2D34
:102AD0001344C0B283F80551D3D08C420346F3D1DE
:102AE000D6E700228949FFF779FF894B002800F0DB
:102AF000C98000221A700A2386492B700A700223AB
:102B0000D7E7814D2B782A460A2B2ED1EB7801F19D
:102B10002404883114F8015B581C0A2D1344C0B2F8
:102B200083F805511CD1D0700823137041F288320C
:102B3000794B1A80774A137801331370754B1B78E1
:102B4000032BC2BF0022754B1A70714B1A78032AEF
:102B500040F3D78000221A700A226B4B1A70F8BD1E
:102B6000A1420346D6D1D070DEE700226749FFF7C5
:102B700035FF674B002800F0858000221A700A2379
:102B800064492B7003230A7014222370624B1A804D
:102B9000D4E75D4D2B782A460A2B11D1EB7801F151
:102BA0008804953114F8015B581C0A2D1344C0B2F7
:102BB00083F805513FF465AF8C420346F2D167E7D5
:102BC00000225249FFF70AFF514B00285AD0002239
:102BD0001A700A234F492B700A70052369E74A4D82
:102BE0002B782A460A2B17D1EB7801F19504CF31C7
:102BF00014F8015B581C0A2D1344C0B283F8055128
:102C000005D1D0700823137040F2DC5290E7A14246
:102C10000346EDD1D070F5E700223C49FFF7DEFE18
:102C20003B4B78B300223B491A700A700F223A4B93
:102C30001A800A232B7006233BE7334D2B782A4654
:102C40000A2B11D1EB7801F1CF04DD3114F8015BCF
:102C5000581C0A2D1344C0B283F805513FF411AF3C
:102C60008C420346F2D113E700222849FFF7B6FE53
:102C7000274B38B100221A700A2326492B700A709C
:102C8000072316E71A7801321A7057E71E4D2B7882
:102C90000A2B15D1EB7801F1DD00E93110F8014B79
:102CA0005A1C0A2C2B44D2B283F8054103D1EA7096
:102CB00008232B703EE781421346EFD1EA70F7E715
:102CC00000221249FFF78AFE114F024688B91449C3
:102CD0003046FFF783FE60B93B7801333B702DE748
:102CE00004220E4B1A7000220E4B1A70012303703F
:102CF00024E70023074A3B7013700A232B700B2331
:102D0000D7E6F8BD940D0020800B0020EF86000868
:102D1000870D0020850D0020FE000020880D00207A
:102D2000F3860008860D002038B5554D04462B78F3
:102D3000042B00F2A380DFE803F0032D555B7A003B
:102D4000504803F05FFC504C2368C01AB0F5FA7F7E
:102D5000C0F094804B4803F055FC20604B4CB4F914
:102D60000030013304D1482249494A4803F0D4FDD8
:102D7000A3681A6863681A42B4F9003060D001335E
:102D800004D13A224249434803F0C6FD23696268F0
:102D90001A6038BD3B4803F042FC3F4B1B68C01A29
:102DA00042F20F73984204D900223C4B1A7002235E
:102DB0002B70344803F033FC394B1B68C01AB0F554
:102DC000FA5F5BD3002237492046FFF707FE002851
:102DD00054D00322344B1A700022304B1A70022355
:102DE0002B7038BD314B1B78002B47D00323F7E7FE
:102DF0002F4D2979EA78914201D0FFF7D9FD2B7840
:102E0000082B0DD11F4803F00AFC234D2B68C01A74
:102E1000284B1B88984231D31A4803F000FC2860E5
:102E2000254B20461968BDE83840FFF705BE204B0A
:102E30001A79DB789A4221D0BDE83840FFF7B8BD57
:102E4000013304D13A221249124803F065FDE368C8
:102E500062680C481A600023134A137001222A701A
:102E6000164A1370164A137003F0D9FB0A4B186008
:102E7000044803F0D4FB0A4B186038BD38BD00BFCE
:102E8000880D0020BC0D0020B80D00209C0D0020F6
:102E900066860008D7860008B40D0020FC000020DC
:102EA000CC0D0020F6860008940D0020860D002031
:102EB000800B0020FE0000208C0D0020870D0020DC
:102EC000850D00201FB5144CB4F90030013304D136
:102ED0003A221249124803F01FFDE368626869460E
:102EE0001A60104B002200930F4B1048039303F01D
:102EF000B9FA6846FEF744FA0D4803F054FB0C4853
:102F000003F08DFB0B4B1860094803F07BFB0A4B69
:102F1000186004B010BD00BF9C0D0020668600083C
:102F2000D78600088528000810850008D00D0020ED
:102F3000BC0D0020CC0D0020B80D002010B50E4CAB
:102F40000E4803F082FB14220021204603F03DFFCF
:102F500020460B4C032103F0CCFB1B221A212046F8
:102F60004FF4E13303F078F92046BDE81040054AFC
:102F7000054901F031B800BF9C0D0020BC0D0020B8
:102F8000D00D0020EC00002029140008114BF0B5F2
:102F9000197000234FF0010C1E464FF0020E1F4621
:102FA0000D4C23705D1C8B42EDB20FDA1E018219AD
:102FB0000CFA03F3137300F806C02B4682F801E005
:102FC00082F802E0576097600126EBE706B12370B4
:102FD000F0BD00BF8C0E0020180600202DE9F04740
:102FE00088461646FFF734FC00284FD0284B0022B5
:102FF00099460124274F284D1A7099F800103B7804
:10300000994243DA0A0108EB020A9AF80C3033407D
:103010000B4118F80210DBB28AF80130032932D8CC
:10302000DFE801F01A021E0A02218AF802106BB9C9
:10303000032308F8023009E02BBB08F802302846C9
:103040008AF8023003F0EBFACAF8040099F800306D
:10305000013389F80030D0E7012BF7D10223E8E7EC
:10306000012B0ED108F8023028468AF8023003F00E
:10307000D6FA99F8002008EB02125368C01A906043
:10308000E4E70023D5E708F80240DFE7BDE8F08772
:10309000180600208C0E0020200700201FB50268B3
:1030A000244B1A608279012302930393112A3DD89D
:1030B000DFE802F0092A0B0D0F11131517191B1D5C
:1030C0001F212325272900231EE002231CE00323C0
:1030D0001AE0042318E0052316E0062314E0072372
:1030E00012E0082310E009230EE00A230CE00B2372
:1030F0000AE00C2308E00D2306E00E2304E00F2372
:1031000002E0102300E0112301A90A48019301F015
:103110004FFA084801F040FB06480A2101F09EF9E9
:1031200020B9044801F040FA80B200E0002005B068
:103130005DF804FB4813002070B5054686B00846CC
:103140000C46244903F014FB2860013004D12248C6
:103150002249302203F0E0FB20461E4903F024FB05
:10316000431C064604D11E481C49342203F0D4FBFC
:10317000C6F3C426EF2CAE7103DC2046154903F0DC
:10318000BBFA184BAC801C680CBB01261E60164BAA
:1031900002A89A6942F400729A619B6903F4007371
:1031A0000193019B022302934FF40043049302F026
:1031B000D5F82B680D4880E818004FF46023846030
:1031C000C460066144618461C36101F069FB06B0BB
:1031D00070BD00BFBC880008A0890008B88900083D
:1031E000138A0008900E00200010024048130020AF
:1031F00008B5FFF753FFC0F3032343EA001080B282
:1032000008BD00003A4970B54B693A4CDB072160B4
:103210002FD58A68384B384813401D1A8A68374BB7
:10322000684203EA0203354A68419E1A8D68344BAE
:10323000724203EA0503324D7241C5EB030CDCF127
:10324000000343EB0C0308B101258D601AB1284936
:103250004FF480758D601BB125494FF480358D602A
:1032600008B902B92BB1274B274A1B681068012106
:1032700098472368DA685B69920707D09E0705D5EF
:10328000204B214A1B6810680021984723689969E0
:103290005A698D075B6909D5900507D5190405D5CD
:1032A000184B194A1B6810680521984723689E69C6
:1032B0005D69C6F38006C5F380255B6946B13DB103
:1032C0001A0405D50F4B104A1B6810680721984750
:1032D00023685B6956B14DB11B0407D5BDE870404A
:1032E000084B094A1B6810680221184770BD00BFCF
:1032F00000640040940E0020030000040003000856
:1033000000000310D40E0020D80E0020FFF77ABF73
:10331000FFF778BFFFF776BF10B50C4CA268A46822
:103320001346B4F1006F0CD1131F094A53F8044F30
:1033300042F8044F074CA242F8D1044A4FF0005320
:103340009360103043F8201010BD00BF00ED00E086
:10335000FCFFFF1FE8000020431C10B5044604D109
:1033600006480749262203F0D7FA2046002100F03C
:10337000DDFA04F00F040120A04010BDDC86000837
:103380002C8A000870B504464B1C0E46218010D0D4
:10339000C1F3031000F080FA05463046FFF7DCFF6A
:1033A00005F10803A36005F1100314356060E360C4
:1033B000256170BDB0F9000000F058BB38B5B0F918
:1033C0000030054601330C4604D10848084949221B
:1033D00003F0A2FA012CB5F9000008BF2146BDE8B0
:1033E000384018BF002100F0A1BA00BFD7860008FE
:1033F0002C8A00082DE9F04107468846144E4C24DB
:1034000004FB00640025043445451ED04C237B4357
:103410000121F35801FA05F21A4213D00D4A236B29
:10342000506901FA03F30342D4F818E00AD053615B
:10343000206838B1DEF808201342074B08BF02218C
:103440001B68984701350434DEE7BDE8F08100BF12
:10345000DC0E002000040140F010002000200121BB
:10346000FFF7C8BF01200146FFF7C4BF02200121BA
:10347000FFF7C0BF03200121FFF7BCBF04200121DB
:10348000FFF7B8BF05200146FFF7B4BF062001468D
:10349000FFF7B0BF2DE9F74F9B464B1C81460D4609
:1034A000019266D001F00F0808F1FF33C1F3031059
:1034B0000E2B09D8DFE803F00C1014181C1C1C1C80
:1034C0001C202020202020002C4F0024062616E05F
:1034D0002B4F0124072612E02A4F022408260EE073
:1034E000294F032409260AE0284F04240A2606E06F
:1034F000274F0524172602E0264F0624282600F031
:10350000CBF94FFA86FA00900721284600F00EFA10
:1035100050463946FFF700FF06F01F01012202FA6C
:1035200001F01D494FEA5A1341F823001B4B89F85B
:10353000006053F828604C2363431949A9F80C50E4
:1035400002FA06F5CA5800202A43C9F80440C9F80F
:103550000800CA50132303FB0464009A01EB8403A0
:10356000DA61C3F804B0C3F83480019A0D4B1A60D5
:1035700000E0084603B0BDE8F08F00BF5D340008EE
:10358000653400086D340008753400087D34000887
:10359000853400088D34000800E100E0748A0008DA
:1035A000DC0E0020F0100020F8B505464468808944
:1035B000164A00F00F03C0F3031000F58010012637
:1035C000423006FA03F1800252F8237001F0D4FA77
:1035D0004C2161430E4ABE405358B5F90C0023EA12
:1035E0000606132303FB04735650002402EB8301E9
:1035F0004C60991D0C3302EB810102EB83034C609C
:103600005C60214600F086FAAC60F8BD748A000860
:10361000DC0E0020A2B1012905D18368023B012BF9
:1036200008D981601EE0022921D1836823F00203BA
:10363000012B03D103238360082119E0816007E097
:10364000012907D18368023B012B0DD80223836037
:1036500007210DE002290AD1836823F00203012B20
:1036600002D18360062103E08260114600E00C2154
:10367000B0F90C0000F04EBAF8B52C4B2C4C5E6A39
:103680001A692360D20712D5DA68D7070FD56FF011
:1036900001021A61274B1A6801321A601A68B3B224
:1036A00003EB0243244A1360244B01221A701F4B80
:1036B0001A6995071FD5DA6890071CD56FF00202CA
:1036C0001F4D1A612B889BB233B1288880B202F05B
:1036D000BDFA00232B800EE01A4F3B684BB14FF62A
:1036E000FF70B6B202F0B2FA2E803B68013B3B603D
:1036F00001E003F00BF923681A69510714D5DA6861
:10370000520711D56FF004020F4D1A615C6A2B68E5
:10371000E31AB3F57A7F07D300F084FE044B04F577
:103720007A721B689A632C60F8BD00BF00080040E5
:10373000C4130020201300201413002000140020C4
:103740001813002024130020F4100020274B37B555
:10375000DA69274C42F00402DA61DA69002502F0E6
:1037600004020192019A1A6942F004021A611A696C
:1037700022F004021A6102F0A1F91E4B1E4A2360D6
:103780004FF6FF73E3601D4B20461B682561B3FBBA
:10379000F2F3013B6360A56001F0AEFF29462046CD
:1037A00002F07AF82046042102F076F82268144BE1
:1037B000516A1E2019601B68124903F57A739363DE
:1037C000FFF7AAFD104B4FF080421A602368204695
:1037D000DA6842F00102DA60DA6842F00402DA6084
:1037E00001F047FF284603B030BD00BF0010024083
:1037F000C41300200008004040420F0004010020D4
:10380000F41000207936000800E100E008B503F06C
:10381000A7F8962003F0F7F8962003F0F4F8F8E7FD
:1038200030B505460C46A1B003F09AF82946684623
:10383000224603F02DFB051E03DC03F0BBF821B08C
:1038400030BD094B1B6823B908480221032200F050
:1038500071FC00241DF804100448013400F09EFDA2
:10386000AC42F7D1E9E700BFFC120020781300203A
:103870000FB407B504A951F8040B0191FFF7D0FF6D
:1038800003B05DF804EB04B0704708B502F016F918
:10389000BDE8084000F0B4BD1FB5032833D8DFE809
:1038A00000F0020E1A261B4B1B489A6942F00402D4
:1038B0009A619B6903F004030393039B27E0154B74
:1038C00016489A6942F008029A619B6903F008035E
:1038D0000093009B1BE00F4B11489A6942F01002C5
:1038E0009A619B6903F010030193019B0FE0094B60
:1038F0000C489A6942F020029A619B6903F0200308
:103900000293029B03E0084803F018F8002005B07A
:103910005DF804FB0010024000080140000C01406B
:103920000010014000140140B48A00082DE9F04362
:10393000431C87B005460C4604D1474847495622E8
:1039400002F0EAFFC5F30310FFF7A6FF444B04F0B3
:103950000F079A69C4F3021642F001029A619B694B
:10396000C4F3C31903F00103ACB2019304F00F08D0
:10397000019BB9F1000F44D009F1FF31092940D86A
:10398000DFE801F0050A0F141920272E3338354AD5
:10399000536843F0010333E0324A536843F00203B3
:1039A0002EE0304A536843F0040329E02D4A53685F
:1039B00043F0080324E02B4A536823F0300343F01C
:1039C00010031DE0274A536823F0C00343F040036F
:1039D00016E0244A536823F4406343F400630FE085
:1039E000204A536843F440730AE01E4A536843F484
:1039F000406305E01B4A536823F4C04343F480430B
:103A00005360012303FA08F30293174B02A953F8FA
:103A10002730049603930323059300F0E7FFA4F1F6
:103A20000D03012B07D80F4A536823F0E06343F0DE
:103A30008063536009E00F2D07D10A4A536823F0D1
:103A4000E06343F00073536002E0133C012CF4D9AF
:103A500007B0BDE8F08300BFDC860008D58A000807
:103A600000100240000001402C8B0008F8B5431CF8
:103A700007460D4604D125482549A42202F04CFFF3
:103A8000C7F30310FFF708FFBCB204F00F06072EC0
:103A90008DBF04F00703B30002469B0088BF021DE0
:103AA000002D31D0022D02D9032D21D0F8BD14688C
:103AB0000321994021420BD11468082199402143E8
:103AC00011601168042404FA03F321EA030313606C
:103AD000012D15BF0123C368C26805FA06F115BFA1
:103AE000B340194322EA0303C16018BFC360F8BDA5
:103AF000106805FA03F101421FBF1168042000FAA3
:103B000003F30B4318BF1360F8BD00BFDC86000849
:103B1000D58A00082DE9F04184B20646C0F30310AF
:103B20000F46FFF7B9FE04F00F08B8F1070F8BBF7F
:103B300004F007044FEA8804A400026888BF4268C2
:103B40004FF0030303FA04F394BF0546051D1A4022
:103B500012D129680823A3400B4016D029680423FA
:103B6000A3400B4210D1C268012303FA08F31342A9
:103B700014BF0123022308E02A680423A340134250
:103B80000CBF0023032300E0134607F00F0130466B
:103B9000BDE8F04141EA0311FFF7C8BE30B5026845
:103BA000254B89B005460C4608461A60002104F0F2
:103BB0005FFB40B920464FF07E5104F077FB18B10F
:103BC0004FF07E5400E00024E86804F05BF92146E1
:103BD00004F0B0F904F074FB60230193AB68286132
:103BE000B0FBF3F00023039304930593069307932C
:103BF0002B7D0290013B032B1CD8DFE803F0080269
:103C00000406042404E0082402E00C2400E000245C
:103C1000094801A9224601F0CFFD10B1074802F082
:103C20008DFE6B7D0448214613B101F06DFE01E06D
:103C300001F048FE09B030BDF8100020608B00088C
:103C400038B5C46894B1006904F01CF905462046F3
:103C500004F018F90146284604F020FA4FF07E518E
:103C6000044604F023FB18B9204638BD002038BDB7
:103C70004FF07E5038BD00002DE9F041D0F80080B3
:103C8000264C05460E46C4F80080FFF7D9FF41F2E6
:103C90001113D8F82020074613405BB940F2444383
:103CA000D8F8202013402BB9D8F8003023F00103B6
:103CB000C8F80030B6F5803FACBF4FF4FA7301236B
:103CC000AB60174B174A1B68B3FBF2F2AB68534368
:103CD000013BB3F5803F636002D3134802F02EFE30
:103CE000AA68731EB3FBF2F3B3F5803FE36002D31F
:103CF0000E4802F023FE002308482361A36001F070
:103D000015FDEE6028463946FFF748FF2268136824
:103D100043F001031360BDE8F08100BFF8100020FC
:103D20000401002040420F00778B0008938B0008AD
:103D30007FB504460E4608462C4902F019FD206066
:103D4000013004D12A482B492D2202F0E5FD3046EE
:103D5000264902F029FD431C054604D12648254981
:103D6000312202F0D9FDC5F3C4232375234A236809
:103D7000C5F30045934265750AD1214B9A6942F417
:103D800000629A619B6903F400630193019B1BE04D
:103D9000B3F1804F0BD103F50433DA6942F001022D
:103DA000DA61DB6903F001030293029B0CE0154A20
:103DB000934209D1124BDA6942F00202DA61DB69FF
:103DC00003F002030393039B3046084902F094FC7E
:103DD0000023E36023610123A680A360204644F60C
:103DE0002061FFF749FF04B070BD00BF488700089D
:103DF000AC8B0008C48B0008138A0008002C01401B
:103E000000100240000400404FF47A735943FFF75A
:103E100033BF38B50446084604F038F80546E06874
:103E200004F030F80146284604F038F901462046EF
:103E3000BDE83840FFF7B2BE08B5084B1B685BB958
:103E400007480221032200F075F905484FF4165186
:103E5000BDE8084000F012BA08BD00BFFC12002007
:103E60007813002002284FF0000309DD0749C21E25
:103E700051F8220041F8223020B103685B681847EE
:103E8000184670474FF0FF30704700BF38110020D0
:103E9000022870B50C4615460FDC0E4B1B680BB99B
:103EA000FFF7CAFF6619B44205D00B4814F8011B8E
:103EB00000F074FAF7E7284670BD084B033853F852
:103EC000200020B1BDE8704003681B6818474FF020
:103ED000FF3070BDFC120020781300203811002044
:103EE000022810B50C460ADC0B4B1B680BB9FFF718
:103EF000A3FF0A4800F032FA2070012010BD084BE1
:103F0000033853F8200020B1BDE8104003689B68D7
:103F100018474FF0FF3010BDFC120020781300202E
:103F200038110020022807DD064B033853F8200023
:103F300020B103681B691847002070474FF0FF301D
:103F4000704700BF3811002008B5012000F046F886
:103F5000704708B5FFF799FCFFF7FAFF08BD7047F7
:103F600008B5FFF7FCFFBDE80840FDF7C1BA000047
:103F70000C4A10B513681844EFF30881884205D342
:103F8000094B0C221A604FF0FF3010BD0749096839
:103F900021B1074C246821448842F1D210601846B0
:103FA00010BD00BF000100200414002034110020C7
:103FB000381200200546074C08B52368986802F0BF
:103FC000DBFD2368D86802F0D7FD0DB1FFF71EFCBA
:103FD000FEE700BF080100200120704708B5FFF789
:103FE000E9FF012070477047704708B5FFF7FBFFF6
:103FF00008BD08B5FFF7F8FF08BD000010B502F0D6
:10400000BBFE044610B9024802F098FC204610BDE1
:10401000CC8C000808B102F0B7BE704743090649CE
:1040200000F01F0001228240203341F82320BFF31B
:104030004F8FBFF36F8F704700E100E00346426887
:1040400010B517491C68920188188C509A68D96875
:104050004260024642F8081F19695160596991602F
:10406000196A00F1100291600021C1848184C18528
:104070008185B3F91A10013101D1082305E0B3F9A4
:10408000183001330CBF04230C23536001F0E9FC0A
:1040900020B1BDE81040034802F050BC10BD00BF85
:1040A0003C120020598D00081A4BF7B5074653F80B
:1040B00020001E4600282BD0174CBD0163591A68FA
:1040C00052060AD5DB68590607D5144B01211B6837
:1040D000984763596FF040021A6063591A68920654
:1040E0000DD5DB6898060AD50C4B56F827001B68DF
:1040F00000219847084B6FF020025B591A60635902
:104100001A68110704D55A69D20744BF5B68019346
:1041100003B0F0BD001300203C1200200C1300205F
:104120000020FFF7C1BF0120FFF7BEBF0220FFF74D
:10413000BBBF0000F0B5044685B008460E464549B1
:10414000154602F015FB44490746284602F010FBCD
:104150000146384602F0EEFA2060013004D13F48B3
:104160003F49642202F0D8FB23683E4A934213D1B0
:104170003D4BDA6842F48042DA60DA6822F4804229
:10418000DA609A6942F480429A619B6903F4804341
:104190000193019B00232CE0344A934213D1324B0C
:1041A0001A6942F400321A611A6922F400321A6163
:1041B000DA6942F40032DA61DB6903F40033029316
:1041C000029B012315E02A4A934213D1264B1A6918
:1041D00042F480221A611A6922F480221A61DA6993
:1041E00042F48022DA61DB6903F480230393039BAA
:1041F000022363603046174902F07EFA28461649CA
:1042000002F07AFA721C03D030460121FFF72EFC2F
:104210006B1C03D028460121FFF728FC4FF41653EE
:10422000A3600023E36023616361236226836583C7
:104230002046FFF703FF22680C4B9A4207D10D4B33
:1042400001221A600C4821464C2202F0B3FD05B051
:10425000F0BD00BF7488000800870008718D000859
:104260008D8D0008003801400010024000440040DD
:1042700000480040FC120020781300208160FFF706
:10428000DDBE0000034B19604168034B43F8212059
:10429000704700BF0C1300200013002038B509C878
:1042A0000D462149884202D1204925240CE02049AD
:1042B000884202D11F49262406E01F49884219BFBF
:1042C00000210C461D4927241D489B01AAB1C25854
:1042D000D36815B943F0200301E043F0400365B211
:1042E000D3602846FFF718F804F007040123154AA5
:1042F0006D09A34042F8253038BDC358DA6835B996
:1043000022F02002DA60DB681A0606D538BD22F0FA
:104310004002DA60DB689B0604D42046BDE83840E2
:10432000FFF77CBE38BD00BF0038014021410008C6
:104330000044004027410008004800402D4100088B
:104340003C12002000E100E04368034A9B01D3587F
:104350001868C0F3401070473C12002038B505467D
:1043600044682846FFF7F0FF0028FAD0054AA30169
:10437000D358E968586809B9C0B238BDC0F308001D
:1043800038BD00BF3C1200204368034A9B01D3584C
:104390001868C0F3C01070473C12002070B5064684
:1043A0000C4645683046FFF7EFFF0028FAD0054A73
:1043B000F168AB01D35809B9E4B201E0C4F30804D1
:1043C0005C6070BD3C12002008488546002103E077
:1043D000074B5B58435004310648074B42189A423A
:1043E000F6D301F0F9FBFBF7C7FEFEE70050002013
:1043F00074920008EC00002080010020FEE7704766
:10440000074A08B51368032043F01003136000F057
:10441000DBFA0F20FFF79AF9FFF7F1FF002008BD44
:1044200000200240024A136801331360704700BF46
:1044300010130020014B1868704700BF10130020B4
:1044400013B50190FFF7F6FF0446FFF7F3FF019B5A
:10445000001B9842F9D302B010BD7047F7B504466F
:1044600000260D460196FFF7E5FF236807469A6888
:10447000D20507D5A36A84F8246043F02003A36221
:10448000012083E05A68D60511D4DB6A13F4700F5B
:104490000DD12268136899072AD4681CFAD0002D20
:1044A00052D0FFF7C7FFC01BA842F2D94CE0384BEF
:1044B00002201E6800F0DEFF2368364A1969B6FB49
:1044C000F0F00A401ABBD968334A0A40FAB91969B0
:1044D000324A0A40002A2ED1DA68314B1340002BB1
:1044E00014BF2923142300FB03F6019BB34228D3F6
:1044F00022686FF012031360A36A43F40073A3628F
:10450000936803F46023B3F5602F31D12EE019696D
:10451000224A0A401AB9D968214A0A406AB119697F
:10452000204A0A405AB9DA681E4B1340002B14BFC8
:10453000FC235423D7E72923D5E75423D3E7FC23CF
:10454000D1E76B1C0ED045B9A36A032043F00403E6
:10455000A362002384F8243018E0FFF76BFFC01B30
:10456000A842F1D8019B01330193BEE7E3680BB188
:1045700000200BE0A36A23F48073A362A06A10F406
:104580008050F5D1A36A43F00103A36203B0F0BDEC
:1045900004010020244992242449920092244912C3
:1045A00092244900499224000368D86C70470000A7
:1045B000F7B50023019390F82430012B00F0AB8075
:1045C000012380F824304B680268062B0D6818D848
:1045D000576B4FF4787494FAA4F6B6FA86F6013B5A
:1045E00094FAA4F4B4FA84F45E4363434FF01F0ECC
:1045F0000EFA06F627EA060605FA03F33343536379
:1046000030E00C2B4FF4787416D8176B94FAA4F69C
:10461000B6FA86F6073B94FAA4F4B4FA84F45E433F
:1046200063434FF01F0E0EFA06F627EA060605FA58
:1046300003F33343136315E0D76A94FAA4F6B6FA8A
:1046400086F60D3B94FAA4F4B4FA84F45E43634313
:104650004FF01F0E0EFA06F627EA060605FA03F3D8
:104660003343D362092D4FF03803896816D9D768D0
:1046700093FAA3F6B6FA86F6A5F10A0493FAA3F321
:10468000B3FA83F3664363434FF0070E0EFA06F660
:1046900027EA060699403143D16012E0166993FA81
:1046A000A3F4B4FA84F493FAA3F3B3FA83F36C4358
:1046B0006B43072707FA04F426EA040499402143D0
:1046C0001161A5F11003012B01D900231EE0134B4A
:1046D0009A4216D193681B02F7D49368102D43F4C5
:1046E00000039360F1D10E4B0E4A1B68B3FBF2F24C
:1046F0000A2353430193019B002BE6D0019B013B0E
:10470000F8E7836A43F0200383620123002280F8E4
:104710002420184600E0022003B0F0BD0024014030
:104720000401002040420F0073B500230193036889
:1047300004469A68D20701D5002026E09A6842F024
:1047400001029A60124B134A1B68B3FBF2F3019308
:10475000019B13B1019B013BF9E7FFF76BFE064696
:1047600023689B6813F00105E6D1FFF763FE801B09
:104770000228F5D9A36A84F8245043F01003A362F9
:10478000E36A012043F00103E36202B070BD00BFA1
:104790000401002040420F0090F8243010B5012B96
:1047A000044655D0012380F82430FFF7BDFF0028D0
:1047B0004AD1A36A274A23F4407323F0010343F448
:1047C0008073A3622368934204D123494A6812F498
:1047D000702F05D1A26A22F48012A2625A6804E006
:1047E000A26A42F48012A2624A68520541BFA26ADC
:1047F00022F4405242F48052A262A26A12F4805221
:104800001CBFE26A22F00602E262002284F8242041
:104810006FF002021A609A6802F46022B2F5602F0B
:104820000CD10C4A934205D1A2F58062526812F471
:10483000702F03D19A6842F4A00202E09A6842F411
:1048400080129A60002010BD002384F8243010BD2F
:10485000022010BD002801400024014038B5036843
:1048600004469A68D20701D4002038BD9A6822F025
:1048700001029A60FFF7DEFD054623689B68DB07AF
:10488000F2D5FFF7D7FD401B0228F6D9A36A012015
:1048900043F01003A362E36A43F00103E36238BD0F
:1048A00038B50446002800F08880836A23B9C362C3
:1048B00080F82430FFF7D1FD2046FFF7CFFFA36A31
:1048C00013F0100FA36A75D1002873D123F4885315
:1048D00023F0020343F00203A362E568022393FA84
:1048E000A3F3B3FA83F3E0696268A1680243B1F508
:1048F000807F05FA03F040EA020005D001290CBFD1
:104900004FF48072002200E00A466369012B15D142
:1049100065B94FF4604595FAA5F5B5FA85F5A36933
:1049200042F40062013BAB401A4307E0A36A43F044
:104930002003A362E36A43F00103E3622368B1F555
:10494000807F5D6825F4694542EA05025A609D68EA
:104950001B4A02EA050242EA00029A6001D00129DC
:1049600009D14FF4700191FAA1F1B1FA81F12269F4
:10497000013A8A4000E00022D96A21F470010A431A
:10498000DA629A680F4B1340834208D10020E0623C
:10499000A36A23F0030343F00103A36238BDA36AB3
:1049A00023F0120343F01003A362E36A43F0010310
:1049B000E36202E043F01003A362012038BD00BFB0
:1049C000FDF7E1FFFE0E1FFF074A00F00700D36866
:1049D00023F4E0631B041B0C43F0BF6343F4003378
:1049E00043EA0023D360704700ED00E00023F7B5F1
:1049F0001D4601220C68AA401440944240F0AC804D
:104A00004A68122A2BD00ED8022A25D004D84AB3DD
:104A1000012A30D1CB682EE0032A1BD0112A2AD1DB
:104A2000CB68043327E04F4EB2421BD006D8A6F520
:104A30008016B24216D006F5803608E04A4EB242E1
:104A400010D006F58036B2420CD0A6F58016B242E0
:104A500011D107E000230EE0CB6808330BE0CB68F0
:104A60000C3308E08B682BB1012B0CBF046144614F
:104A7000082300E00423FF2C97BF8646A5F1080712
:104A80000668AF0084BF4668BF004FF00F0202FA0D
:104A900007FC26EA0C0603FA07F746EA070688BF72
:104AA00000F1040ECEF800604F68FE0054D52F4E82
:104AB00005F0030CD6F818E04FEA8C0C4EF0010E0E
:104AC000C6F818E0B66902FA0CF206F00106019683
:104AD000019E25F0030606F1804606F58036D6F8DD
:104AE00008E02EEA020E224A90420ED002F58062C1
:104AF00090420CD002F5806290420AD002F58062AA
:104B000090420CBF0322042204E0002202E00122B2
:104B100000E0022202FA0CF242EA0E02B260154AEA
:104B200017F4803F166814BF2643A64316605668E4
:104B300017F4003F14BF2643A6435660966817F447
:104B4000801F14BF2643A6439660D668BF024CBFA1
:104B5000344326EA0404D4600135102D7FF449AFB4
:104B600003B0F0BD00002110000031100010024021
:104B70000008014000040140F0B5002531FA05F3BA
:104B80005DD00124AC400C4057D0FF2C98BF864626
:104B90006FEA04048BBFA5F1080703684368AF0000
:104BA00088BFBF004FF00F0606FA07F223EA0203A0
:104BB0004FF0040202FA07F288BF00F1040E13431B
:104BC000CEF80030C36825F00302234002F1804292
:104BD000C36002F5803205F003079368BF00BE4052
:104BE00006EA030E164B98420ED003F580639842F6
:104BF0000CD003F5806398420AD003F58063984295
:104C00000CBF0323042304E0002302E0012300E09F
:104C10000223BB409E4510D1936823EA0606094B48
:104C200096601A6822401A605A6822405A609A6850
:104C300022409A60DA681440DC6001359EE7F0BDDE
:104C400000080140000401400368F7B50546D80795
:104C500003D42B68990773D4F0E0B74C636803F072
:104C60000C03042B07D0636803F00C03082B16D148
:104C70006368DA0313D54FF4003393FAA3F2226882
:104C800093FAA3F3B3FA83F303F01F0322FA03F3B7
:104C9000DB07DED56B68002BDBD1012030E26B68CF
:104CA000B3F5803F13D05BB9236823F480332360CE
:104CB000236823F480232360FFF7BCFB06462FE024
:104CC000B3F5A02F236806D143F480232360236823
:104CD00043F4803305E023F480332360236823F416
:104CE00080232360FFF7A6FB06464FF4003393FAB8
:104CF000A3F2226893FAA3F3B3FA83F303F01F033A
:104D000022FA03F3DF07A4D4FFF794FB801B642887
:104D1000EBD90320F4E1FFF78DFB801B6428F8D862
:104D20004FF4003393FAA3F2226893FAA3F3B3FA91
:104D300083F303F01F0322FA03F3D807EBD488E7C9
:104D40007D4C636813F00C0F07D0636803F00C030D
:104D5000082B20D16368D9031DD4022393FAA3F250
:104D6000226893FAA3F3B3FA83F303F01F0322FA42
:104D700003F3DA0702D52B69012B8ED12268F821C3
:104D800091FAA1F1B1FA81F16B6922F0F8028B403E
:104D90001343236052E02A69012372B393FAA3F20A
:104DA000B2FA82F2920002F1844202F584021360A8
:104DB000FFF740FB0646022393FAA3F25E482268FF
:104DC00093FAA3F3B3FA83F303F01F0322FA03F376
:104DD000DB0705D4FFF72EFB801B0228EBD998E7F1
:104DE0000268F82191FAA1F1B1FA81F16B6922F020
:104DF000F8028B401343036020E093FAA3F3B3FA65
:104E000083F39B0003F1844303F584031A60FFF7E7
:104E100011FB0646022393FAA3F2226893FAA3F346
:104E2000B3FA83F303F01F0322FA03F3DF0705D578
:104E3000FFF700FB801B0228ECD96AE72B681C07F0
:104E400046D5AA693C4C01233C4912B393FAA3F21C
:104E5000B2FA82F241F82230FFF7ECFA064602235A
:104E600093FAA3F293FAA3F2626A93FAA3F3B3FA62
:104E700083F303F01F0322FA03F3D80705D4FFF7E7
:104E8000D9FA801B0228EAD943E70120FFF7D8FAB4
:104E90001EE093FAA3F3B3FA83F341F82320FFF75C
:104EA000C9FA0646022393FAA3F293FAA3F2626ABE
:104EB00093FAA3F3B3FA83F303F01F0322FA03F385
:104EC000D90705D5FFF7B6FA801B0228EAD920E7F3
:104ED0002B685A0704D4EA69002A40F08680DEE095
:104EE000154C174AE36943F08053E361E36903F02B
:104EF00080530193019B136843F480731360FFF7A1
:104F000099FA06460E4B1B68DB0505D4FFF792FAAB
:104F1000801B6428F6D9FCE6EB68012B18D08BB90E
:104F2000236A23F001032362236A23F0040323622C
:104F3000FFF780FA064640E000100240800442423B
:104F400000700040052B236A06D143F0040323625E
:104F5000236A43F0010305E023F001032362236A7F
:104F600023F004032362FFF765FA0646022393FA4F
:104F7000A3F293FAA3F2B2FA82F242F0400252098B
:104F80009A420CBF226A626A93FAA3F3B3FA83F3DC
:104F900003F01F03DA40D7079DD4FFF74BFA41F225
:104FA0008833801B9842E1D9B3E6FFF743FA41F218
:104FB0008833801B98423FF6ACAE022393FAA3F2EB
:104FC00093FAA3F2B2FA82F242F0400252099A42F4
:104FD0000CBF226A626A93FAA3F3B3FA83F303F075
:104FE0001F03DA40D007E0D475E7464C636803F04E
:104FF0000C03082B3FF451AE022A4FF080735CD1B2
:1050000093FAA3F3B3FA83F39B0003F1844303F50C
:10501000840300221A60FFF70DFA06464FF0007372
:1050200093FAA3F2374F226893FAA3F3B3FA83F308
:1050300003F01F0322FA03F3D90732D42E6AB6F520
:10504000803F01BF796821F40030A968014308BF9F
:10505000796063686A6A23F47413324313436360AC
:105060004FF0807393FAA3F3B3FA83F39B0003F139
:10507000844303F5840301221A60FFF7DBF9054638
:105080004FF0007393FAA3F2226893FAA3F3B3FAF2
:1050900083F303F01F0322FA03F3DA0707D5002096
:1050A0002EE0FFF7C7F9801B0228B7D931E6FFF7DA
:1050B000C1F9401B0228E3D92BE693FAA3F3B3FA14
:1050C00083F39B0003F1844303F5840300221A60F9
:1050D000FFF7B0F905464FF0007393FAA3F2226888
:1050E00093FAA3F3B3FA83F303F01F0322FA03F353
:1050F000DB07D4D5FFF79EF9401B0228EBD908E661
:1051000003B0F0BD001002401F4B70B503F1100555
:105110002E4686B002AC224618685968083303C28E
:10512000AB421446F7D133881848ADF804304168D3
:1051300001F00C03082B23D14FF4701292FAA2F263
:10514000B2FA82F201F47013D34006AA134413F8A2
:10515000102CCB0311D543684FF4003191FAA1F123
:10516000B1FA81F103F40033CB4006A90B4413F8E4
:10517000140C074BB3FBF0F000E00648504300E08E
:10518000034806B070BD00BF568E000800100240F4
:1051900000127A0000093D00544AF8B5136806462B
:1051A00003F0070399420D460AD831688C0713D5DE
:1051B0004F48436823F0F002B368134343600BE0A9
:1051C000136823F007030B431360136803F007030E
:1051D0008B42EAD00120F8BDC80706D4434A1368C1
:1051E00003F007039D424DD356E07268404C012AFC
:1051F00002D14FF4003304E0022A0CBF4FF00073D9
:10520000022393FAA3F1216893FAA3F3B3FA83F389
:1052100003F01F0321FA03F3D907DBD5636823F0FA
:1052200003031A436260FFF705F973680746012B11
:105230000DD1636803F00C03042BCFD0FFF7FAF80D
:1052400041F28833C01B9842F3D90320F8BD022BEA
:1052500013D1636803F00C03082BBFD0FFF7EAF803
:1052600041F28833C01B9842F3D9EEE7FFF7E2F82A
:1052700041F28833C01B9842E7D8636813F00C0FE3
:10528000F4D1ABE7136823F007032B4313601368D3
:1052900003F00703AB429DD13168154C11F0040FA8
:1052A00005D0636823F4E062F368134363600B077F
:1052B00041BF6368326923F4605343EAC20348BFC5
:1052C0006360FFF721FF6368F02292FAA2F2B2FA5C
:1052D00082F203F0F003D340064AD35CD840064B79
:1052E00018600F20FEF732FA0020F8BD00200240BF
:1052F000001002407A8E000804010020084B4FF491
:10530000E0625B6892FAA2F2B2FA82F203F4E0631E
:10531000D340044AD35C044A1068D840704700BFA9
:10532000001002408A8E000804010020084B4FF450
:1053300060525B6892FAA2F2B2FA82F203F460530E
:10534000D340044AD35C044A1068D840704700BF79
:10535000001002408A8E0008040100200368F7B59F
:10536000DC07054667D5404C404AE36943F080536B
:10537000E361E36903F080530193019B136843F4F5
:1053800080731360FFF756F80646384B1B68D80544
:1053900006D4FFF74FF8801B6428F6D9032060E09D
:1053A000236A314813F4407306D1236A23F4407210
:1053B0006B68134323623EE06A6802F440729342D2
:1053C000F3D0016A4FF4803321F4407793FAA3F2CB
:1053D000B2FA82F2264E4FF0010E46F822E093FA1E
:1053E000A3F3B3FA83F30022C90746F82320076228
:1053F000DBD5FFF71FF80646022393FAA3F293FAD0
:10540000A3F2B2FA82F242F0400252099A420CBF71
:10541000226A626A93FAA3F3B3FA83F303F01F03D9
:10542000DA40D207C1D4FFF705F841F28833801B78
:105430009842E1D9B2E72868830741BF0A494B681F
:1054400023F44042AB6844BF13434B6010F010009C
:1054500007D0054900204B6823F48002EB68134312
:105460004B6003B0F0BD00BF001002400070004070
:10547000000442423F4BF0B503F1100604463746A4
:1054800087B002AD2A4618685968083303C2B34290
:105490001546F7D13B88022CADF8043051D0102CC2
:1054A00002D0012C62D12EE033494C68086810F01C
:1054B00080705CD04FF4701292FAA2F2B2FA82F2CB
:1054C00004F47013D34006AA1344E20313F8103C0B
:1054D00011D54A684FF4003090FAA0F0B0FA80F08D
:1054E00002F40032C24006A8024412F8140C234A07
:1054F000B2FBF0F000E0224858434B685B0236D420
:10550000400003232CE040F202311B4A136A194089
:10551000B1F5817F27D003F44073B3F5007F05D147
:10552000536A49F6404013F0020F07E0B3F5407F9D
:105530001CD14FF22440136813F4003F08BF002031
:1055400015E0FFF7F3FE0C4B4FF480425B6892FAD4
:10555000A2F2B2FA82F203F44043D34001335B007B
:10556000B0FBF3F003E04FF4004000E0002007B090
:10557000F0BD00BF688E00080010024000127A00E3
:1055800000093D00036A70B523F001030362036A5A
:10559000426884690D6824F07304254323F00204F3
:1055A0008B6823430A4CA0420BD1CC6823F008033C
:1055B00023438E694C6922F44072344323F0040380
:1055C000224342604A6885614263036270BD00BF46
:1055D000002C0140036A30B523F480730362036A30
:1055E0004268C4690D6824F073042C438D6823F469
:1055F000007343EA05230C4DA8420ED1CD6823F475
:10560000006343EA05234D6922F4405242EA051241
:105610008D6923F4806342EA051242604A68C461DE
:10562000C263036230BD00BF002C0140036A30B585
:1056300023F480530362036A4468C2690D6822F44C
:10564000E64242EA05228D6823F4005343EA05331B
:10565000064DA84202BF4D6924F4804444EA8514F3
:105660004460C2614A680264036230BD002C01409C
:1056700070470268022380F83930136843F0010351
:105680001360012380F83930002070477047000014
:10569000184A036890420AD0B0F1804F07D0A2F5B3
:1056A0009432904203D002F58062904215D14A684C
:1056B00023F0700313430F4A90420AD0B0F1804F99
:1056C00007D0A2F59432904203D002F58062904256
:1056D00003D1CA6823F44073134303608B68C36229
:1056E0000B688362034B984204BF0B690363012379
:1056F00043617047002C014010B50446A0B190F8FA
:10570000393003F0FF021BB980F83820FFF7B0FFF3
:10571000022384F839302068211DFFF7B9FF0123E7
:1057200084F83930002010BD012010BD10B50446AA
:10573000A0B190F8393003F0FF021BB980F838208F
:10574000FFF7A4FF022384F839302068211DFFF7FA
:105750009FFF012384F83930002010BD012010BDC7
:10576000036A30B523F010030362036A4268846958
:105770000D6824F4E64444EA05248D6823F02003F0
:1057800043EA05130B4DA8420ED1CD6823F08003E8
:1057900043EA05134D6922F4406242EA85028D69AD
:1057A00023F0400342EA850242604A6884618263D2
:1057B000036230BD002C014038B590F83830044603
:1057C000012B0D464FF0020058D0012384F83830E9
:1057D00084F839000C2A4BD8DFE802F0074A4A4A1D
:1057E000174A4A4A294A4A4A39002068FFF7CAFE3E
:1057F00023689A6942F008029A619A6922F00402C9
:105800009A6199692A690A430FE02068FFF7A8FFA7
:10581000236829699A6942F400629A619A6922F4BC
:1058200080629A619A6942EA01229A6120E02068C6
:10583000FFF7D0FE2368DA6942F00802DA61DA691C
:1058400022F00402DA61D9692A690A430FE020686C
:10585000FFF7ECFE23682969DA6942F40062DA6135
:10586000DA6922F48062DA61DA6942EA0122DA61F5
:105870000123002084F8393084F8380038BD10B591
:105880000123046A8B4024EA03030362036A8A400B
:105890001343036210BD000010B5044601220068E6
:1058A000FFF7EDFF2368064A0020934202BF5A6CBF
:1058B00042F400425A641A6842F001021A6010BDB4
:1058C000002C014010B5044601220068FFF7D7FF05
:1058D0002368064A0020934202BF5A6C42F40042F9
:1058E0005A641A6842F001021A6010BD002C01408F
:1058F00010B50423046A8B4024EA03030362036A9D
:105900008A401343036210BD10B5044604220068A8
:10591000FFF7EEFF236800205A6C42F400425A64FD
:105920001A6842F001021A6010BD00002DE9F0472C
:10593000056801692B69804623F44052C368192425
:1059400013432B618368EA6819434369194322F4BE
:10595000B05323F00C030B43EB606B6923F44072EC
:10596000836913436B613D4B9D4231D1FFF7DEFCF0
:105970006043D8F804604FF06409B600B0FBF6F657
:10598000FFF7D4FC6043D8F80430B6FBF9F69B006F
:10599000B0FBF3F7FFF7CAFC6043D8F804303601D8
:1059A0009B00B0FBF3F0B0FBF9F009FB10731B0197
:1059B0003233B3FBF9F303F0F007FFF7B7FC6043B2
:1059C000D8F804209200B0FBF2FAFFF7AFFC30E009
:1059D000FFF794FC6043D8F804604FF06409B60008
:1059E000B0FBF6F6FFF78AFC6043D8F80430B6FB4C
:1059F000F9F69B00B0FBF3F7FFF780FC6043D8F8A3
:105A0000043036019B00B0FBF3F0B0FBF9F009FB6A
:105A100010731B013233B3FBF9F303F0F007FFF708
:105A20006DFC6043D8F804209200B0FBF2FAFFF757
:105A300065FC4443D8F804008000B4FBF0F0B0FBF0
:105A4000F9F009FB10A212013232B2FBF9F202F0B6
:105A50000F02BB183344AB60BDE8F087003801404B
:105A6000704710B5044630B390F8393003F0FF02A8
:105A70001BB980F83820FFF7F3FF2268022384F86F
:105A80003930D368204623F40053D360FFF74EFF2C
:105A9000236800201A6922F490421A615A6922F0A0
:105AA0002A025A61DA6842F40052DA600123E063A4
:105AB00084F8393010BD012010BD0000114A124B8E
:105AC000516801F00C01042901D0082901D00F49C7
:105AD0000EE051685068C1F38341C00301F1020137
